{
  "contractName": "Dummy",
  "abi": [
    {
      "inputs": [],
      "payable": false,
      "stateMutability": "nonpayable",
      "type": "constructor"
    },
    {
      "constant": true,
      "inputs": [],
      "name": "getA",
      "outputs": [
        {
          "name": "",
          "type": "uint256"
        }
      ],
      "payable": false,
      "stateMutability": "view",
      "type": "function"
    },
    {
      "constant": false,
      "inputs": [
        {
          "name": "_a",
          "type": "uint256"
        }
      ],
      "name": "setA",
      "outputs": [],
      "payable": false,
      "stateMutability": "nonpayable",
      "type": "function"
    }
  ],
  "bytecode": "0x6060604052341561000f57600080fd5b600160008190555060d3806100256000396000f3006060604052600436106049576000357c0100000000000000000000000000000000000000000000000000000000900463ffffffff168063d46300fd14604e578063ee919d50146074575b600080fd5b3415605857600080fd5b605e6094565b6040518082815260200191505060405180910390f35b3415607e57600080fd5b60926004808035906020019091905050609d565b005b60008054905090565b80600081905550505600a165627a7a72305820eaa97784294f1b197fd719f03f95f166ad61a0dd5431fbf2375dbc886386caa90029",
  "source": "pragma solidity ^0.4.20;\n\ncontract Dummy {\n    uint a;\n\n    function Dummy() public {\n        a = 1;\n    }\n\n    function getA() public view returns (uint) {\n        return a;\n    }\n\n    function setA(uint _a) public {\n        a = _a;\n    }\n}",
  "sourcePath": "/home/cat/travistest/contracts/Dummy.sol",
  "compiler": {
    "name": "solc",
    "version": "0.4.21+commit.dfe3193c.Emscripten.clang"
  },
  "schemaVersion": "2.0.0",
  "updatedAt": "2018-04-05T14:31:09.046Z"
}